{
  "address": "0xD664b8d8624750a4f945fe9efb1438e9e021cd56",
  "abi": [
    {
      "inputs": [],
      "stateMutability": "nonpayable",
      "type": "constructor"
    },
    {
      "anonymous": false,
      "inputs": [
        {
          "indexed": true,
          "internalType": "address",
          "name": "owner",
          "type": "address"
        },
        {
          "indexed": true,
          "internalType": "address",
          "name": "spender",
          "type": "address"
        },
        {
          "indexed": false,
          "internalType": "uint256",
          "name": "value",
          "type": "uint256"
        }
      ],
      "name": "Approval",
      "type": "event"
    },
    {
      "anonymous": false,
      "inputs": [
        {
          "indexed": true,
          "internalType": "address",
          "name": "delegator",
          "type": "address"
        },
        {
          "indexed": true,
          "internalType": "address",
          "name": "fromDelegate",
          "type": "address"
        },
        {
          "indexed": true,
          "internalType": "address",
          "name": "toDelegate",
          "type": "address"
        }
      ],
      "name": "DelegateChanged",
      "type": "event"
    },
    {
      "anonymous": false,
      "inputs": [
        {
          "indexed": true,
          "internalType": "address",
          "name": "delegate",
          "type": "address"
        },
        {
          "indexed": false,
          "internalType": "uint256",
          "name": "previousBalance",
          "type": "uint256"
        },
        {
          "indexed": false,
          "internalType": "uint256",
          "name": "newBalance",
          "type": "uint256"
        }
      ],
      "name": "DelegateVotesChanged",
      "type": "event"
    },
    {
      "anonymous": false,
      "inputs": [
        {
          "indexed": true,
          "internalType": "bytes32",
          "name": "role",
          "type": "bytes32"
        },
        {
          "indexed": true,
          "internalType": "bytes32",
          "name": "previousAdminRole",
          "type": "bytes32"
        },
        {
          "indexed": true,
          "internalType": "bytes32",
          "name": "newAdminRole",
          "type": "bytes32"
        }
      ],
      "name": "RoleAdminChanged",
      "type": "event"
    },
    {
      "anonymous": false,
      "inputs": [
        {
          "indexed": true,
          "internalType": "bytes32",
          "name": "role",
          "type": "bytes32"
        },
        {
          "indexed": true,
          "internalType": "address",
          "name": "account",
          "type": "address"
        },
        {
          "indexed": true,
          "internalType": "address",
          "name": "sender",
          "type": "address"
        }
      ],
      "name": "RoleGranted",
      "type": "event"
    },
    {
      "anonymous": false,
      "inputs": [
        {
          "indexed": true,
          "internalType": "bytes32",
          "name": "role",
          "type": "bytes32"
        },
        {
          "indexed": true,
          "internalType": "address",
          "name": "account",
          "type": "address"
        },
        {
          "indexed": true,
          "internalType": "address",
          "name": "sender",
          "type": "address"
        }
      ],
      "name": "RoleRevoked",
      "type": "event"
    },
    {
      "anonymous": false,
      "inputs": [
        {
          "indexed": true,
          "internalType": "address",
          "name": "from",
          "type": "address"
        },
        {
          "indexed": true,
          "internalType": "address",
          "name": "to",
          "type": "address"
        },
        {
          "indexed": false,
          "internalType": "uint256",
          "name": "value",
          "type": "uint256"
        }
      ],
      "name": "Transfer",
      "type": "event"
    },
    {
      "inputs": [],
      "name": "DEFAULT_ADMIN_ROLE",
      "outputs": [
        {
          "internalType": "bytes32",
          "name": "",
          "type": "bytes32"
        }
      ],
      "stateMutability": "view",
      "type": "function"
    },
    {
      "inputs": [],
      "name": "DOMAIN_SEPARATOR",
      "outputs": [
        {
          "internalType": "bytes32",
          "name": "",
          "type": "bytes32"
        }
      ],
      "stateMutability": "view",
      "type": "function"
    },
    {
      "inputs": [],
      "name": "MINTER_ROLE",
      "outputs": [
        {
          "internalType": "bytes32",
          "name": "",
          "type": "bytes32"
        }
      ],
      "stateMutability": "view",
      "type": "function"
    },
    {
      "inputs": [
        {
          "internalType": "address",
          "name": "owner",
          "type": "address"
        },
        {
          "internalType": "address",
          "name": "spender",
          "type": "address"
        }
      ],
      "name": "allowance",
      "outputs": [
        {
          "internalType": "uint256",
          "name": "",
          "type": "uint256"
        }
      ],
      "stateMutability": "view",
      "type": "function"
    },
    {
      "inputs": [
        {
          "internalType": "address",
          "name": "spender",
          "type": "address"
        },
        {
          "internalType": "uint256",
          "name": "amount",
          "type": "uint256"
        }
      ],
      "name": "approve",
      "outputs": [
        {
          "internalType": "bool",
          "name": "",
          "type": "bool"
        }
      ],
      "stateMutability": "nonpayable",
      "type": "function"
    },
    {
      "inputs": [
        {
          "internalType": "address",
          "name": "account",
          "type": "address"
        }
      ],
      "name": "balanceOf",
      "outputs": [
        {
          "internalType": "uint256",
          "name": "",
          "type": "uint256"
        }
      ],
      "stateMutability": "view",
      "type": "function"
    },
    {
      "inputs": [
        {
          "internalType": "uint256",
          "name": "amount",
          "type": "uint256"
        }
      ],
      "name": "burn",
      "outputs": [],
      "stateMutability": "nonpayable",
      "type": "function"
    },
    {
      "inputs": [
        {
          "internalType": "address",
          "name": "account",
          "type": "address"
        },
        {
          "internalType": "uint256",
          "name": "amount",
          "type": "uint256"
        }
      ],
      "name": "burnFrom",
      "outputs": [],
      "stateMutability": "nonpayable",
      "type": "function"
    },
    {
      "inputs": [
        {
          "internalType": "address",
          "name": "account",
          "type": "address"
        },
        {
          "internalType": "uint32",
          "name": "pos",
          "type": "uint32"
        }
      ],
      "name": "checkpoints",
      "outputs": [
        {
          "components": [
            {
              "internalType": "uint32",
              "name": "fromBlock",
              "type": "uint32"
            },
            {
              "internalType": "uint224",
              "name": "votes",
              "type": "uint224"
            }
          ],
          "internalType": "struct ERC20Votes.Checkpoint",
          "name": "",
          "type": "tuple"
        }
      ],
      "stateMutability": "view",
      "type": "function"
    },
    {
      "inputs": [],
      "name": "decimals",
      "outputs": [
        {
          "internalType": "uint8",
          "name": "",
          "type": "uint8"
        }
      ],
      "stateMutability": "view",
      "type": "function"
    },
    {
      "inputs": [
        {
          "internalType": "address",
          "name": "spender",
          "type": "address"
        },
        {
          "internalType": "uint256",
          "name": "subtractedValue",
          "type": "uint256"
        }
      ],
      "name": "decreaseAllowance",
      "outputs": [
        {
          "internalType": "bool",
          "name": "",
          "type": "bool"
        }
      ],
      "stateMutability": "nonpayable",
      "type": "function"
    },
    {
      "inputs": [
        {
          "internalType": "address",
          "name": "delegatee",
          "type": "address"
        }
      ],
      "name": "delegate",
      "outputs": [],
      "stateMutability": "nonpayable",
      "type": "function"
    },
    {
      "inputs": [
        {
          "internalType": "address",
          "name": "delegatee",
          "type": "address"
        },
        {
          "internalType": "uint256",
          "name": "nonce",
          "type": "uint256"
        },
        {
          "internalType": "uint256",
          "name": "expiry",
          "type": "uint256"
        },
        {
          "internalType": "uint8",
          "name": "v",
          "type": "uint8"
        },
        {
          "internalType": "bytes32",
          "name": "r",
          "type": "bytes32"
        },
        {
          "internalType": "bytes32",
          "name": "s",
          "type": "bytes32"
        }
      ],
      "name": "delegateBySig",
      "outputs": [],
      "stateMutability": "nonpayable",
      "type": "function"
    },
    {
      "inputs": [
        {
          "internalType": "address",
          "name": "account",
          "type": "address"
        }
      ],
      "name": "delegates",
      "outputs": [
        {
          "internalType": "address",
          "name": "",
          "type": "address"
        }
      ],
      "stateMutability": "view",
      "type": "function"
    },
    {
      "inputs": [],
      "name": "devWallet",
      "outputs": [
        {
          "internalType": "address",
          "name": "",
          "type": "address"
        }
      ],
      "stateMutability": "view",
      "type": "function"
    },
    {
      "inputs": [
        {
          "internalType": "address",
          "name": "account",
          "type": "address"
        }
      ],
      "name": "getCurrentVotes",
      "outputs": [
        {
          "internalType": "uint96",
          "name": "",
          "type": "uint96"
        }
      ],
      "stateMutability": "view",
      "type": "function"
    },
    {
      "inputs": [
        {
          "internalType": "uint256",
          "name": "blockNumber",
          "type": "uint256"
        }
      ],
      "name": "getPastTotalSupply",
      "outputs": [
        {
          "internalType": "uint256",
          "name": "",
          "type": "uint256"
        }
      ],
      "stateMutability": "view",
      "type": "function"
    },
    {
      "inputs": [
        {
          "internalType": "address",
          "name": "account",
          "type": "address"
        },
        {
          "internalType": "uint256",
          "name": "blockNumber",
          "type": "uint256"
        }
      ],
      "name": "getPastVotes",
      "outputs": [
        {
          "internalType": "uint256",
          "name": "",
          "type": "uint256"
        }
      ],
      "stateMutability": "view",
      "type": "function"
    },
    {
      "inputs": [
        {
          "internalType": "address",
          "name": "account",
          "type": "address"
        },
        {
          "internalType": "uint256",
          "name": "blockNumber",
          "type": "uint256"
        }
      ],
      "name": "getPriorVotes",
      "outputs": [
        {
          "internalType": "uint96",
          "name": "",
          "type": "uint96"
        }
      ],
      "stateMutability": "view",
      "type": "function"
    },
    {
      "inputs": [
        {
          "internalType": "bytes32",
          "name": "role",
          "type": "bytes32"
        }
      ],
      "name": "getRoleAdmin",
      "outputs": [
        {
          "internalType": "bytes32",
          "name": "",
          "type": "bytes32"
        }
      ],
      "stateMutability": "view",
      "type": "function"
    },
    {
      "inputs": [
        {
          "internalType": "bytes32",
          "name": "role",
          "type": "bytes32"
        },
        {
          "internalType": "uint256",
          "name": "index",
          "type": "uint256"
        }
      ],
      "name": "getRoleMember",
      "outputs": [
        {
          "internalType": "address",
          "name": "",
          "type": "address"
        }
      ],
      "stateMutability": "view",
      "type": "function"
    },
    {
      "inputs": [
        {
          "internalType": "bytes32",
          "name": "role",
          "type": "bytes32"
        }
      ],
      "name": "getRoleMemberCount",
      "outputs": [
        {
          "internalType": "uint256",
          "name": "",
          "type": "uint256"
        }
      ],
      "stateMutability": "view",
      "type": "function"
    },
    {
      "inputs": [
        {
          "internalType": "address",
          "name": "account",
          "type": "address"
        }
      ],
      "name": "getVotes",
      "outputs": [
        {
          "internalType": "uint256",
          "name": "",
          "type": "uint256"
        }
      ],
      "stateMutability": "view",
      "type": "function"
    },
    {
      "inputs": [
        {
          "internalType": "bytes32",
          "name": "role",
          "type": "bytes32"
        },
        {
          "internalType": "address",
          "name": "account",
          "type": "address"
        }
      ],
      "name": "grantRole",
      "outputs": [],
      "stateMutability": "nonpayable",
      "type": "function"
    },
    {
      "inputs": [
        {
          "internalType": "bytes32",
          "name": "role",
          "type": "bytes32"
        },
        {
          "internalType": "address",
          "name": "account",
          "type": "address"
        }
      ],
      "name": "hasRole",
      "outputs": [
        {
          "internalType": "bool",
          "name": "",
          "type": "bool"
        }
      ],
      "stateMutability": "view",
      "type": "function"
    },
    {
      "inputs": [
        {
          "internalType": "address",
          "name": "spender",
          "type": "address"
        },
        {
          "internalType": "uint256",
          "name": "addedValue",
          "type": "uint256"
        }
      ],
      "name": "increaseAllowance",
      "outputs": [
        {
          "internalType": "bool",
          "name": "",
          "type": "bool"
        }
      ],
      "stateMutability": "nonpayable",
      "type": "function"
    },
    {
      "inputs": [],
      "name": "init",
      "outputs": [
        {
          "internalType": "bool",
          "name": "",
          "type": "bool"
        }
      ],
      "stateMutability": "view",
      "type": "function"
    },
    {
      "inputs": [],
      "name": "initialLiquidityProvider",
      "outputs": [
        {
          "internalType": "address",
          "name": "",
          "type": "address"
        }
      ],
      "stateMutability": "view",
      "type": "function"
    },
    {
      "inputs": [
        {
          "internalType": "address",
          "name": "to",
          "type": "address"
        },
        {
          "internalType": "uint256",
          "name": "amount",
          "type": "uint256"
        }
      ],
      "name": "mint",
      "outputs": [],
      "stateMutability": "nonpayable",
      "type": "function"
    },
    {
      "inputs": [],
      "name": "name",
      "outputs": [
        {
          "internalType": "string",
          "name": "",
          "type": "string"
        }
      ],
      "stateMutability": "view",
      "type": "function"
    },
    {
      "inputs": [
        {
          "internalType": "address",
          "name": "owner",
          "type": "address"
        }
      ],
      "name": "nonces",
      "outputs": [
        {
          "internalType": "uint256",
          "name": "",
          "type": "uint256"
        }
      ],
      "stateMutability": "view",
      "type": "function"
    },
    {
      "inputs": [
        {
          "internalType": "address",
          "name": "account",
          "type": "address"
        }
      ],
      "name": "numCheckpoints",
      "outputs": [
        {
          "internalType": "uint32",
          "name": "",
          "type": "uint32"
        }
      ],
      "stateMutability": "view",
      "type": "function"
    },
    {
      "inputs": [
        {
          "internalType": "address",
          "name": "owner",
          "type": "address"
        },
        {
          "internalType": "address",
          "name": "spender",
          "type": "address"
        },
        {
          "internalType": "uint256",
          "name": "value",
          "type": "uint256"
        },
        {
          "internalType": "uint256",
          "name": "deadline",
          "type": "uint256"
        },
        {
          "internalType": "uint8",
          "name": "v",
          "type": "uint8"
        },
        {
          "internalType": "bytes32",
          "name": "r",
          "type": "bytes32"
        },
        {
          "internalType": "bytes32",
          "name": "s",
          "type": "bytes32"
        }
      ],
      "name": "permit",
      "outputs": [],
      "stateMutability": "nonpayable",
      "type": "function"
    },
    {
      "inputs": [
        {
          "internalType": "bytes32",
          "name": "role",
          "type": "bytes32"
        },
        {
          "internalType": "address",
          "name": "account",
          "type": "address"
        }
      ],
      "name": "renounceRole",
      "outputs": [],
      "stateMutability": "nonpayable",
      "type": "function"
    },
    {
      "inputs": [
        {
          "internalType": "bytes32",
          "name": "role",
          "type": "bytes32"
        },
        {
          "internalType": "address",
          "name": "account",
          "type": "address"
        }
      ],
      "name": "revokeRole",
      "outputs": [],
      "stateMutability": "nonpayable",
      "type": "function"
    },
    {
      "inputs": [
        {
          "internalType": "bytes4",
          "name": "interfaceId",
          "type": "bytes4"
        }
      ],
      "name": "supportsInterface",
      "outputs": [
        {
          "internalType": "bool",
          "name": "",
          "type": "bool"
        }
      ],
      "stateMutability": "view",
      "type": "function"
    },
    {
      "inputs": [],
      "name": "symbol",
      "outputs": [
        {
          "internalType": "string",
          "name": "",
          "type": "string"
        }
      ],
      "stateMutability": "view",
      "type": "function"
    },
    {
      "inputs": [],
      "name": "totalSupply",
      "outputs": [
        {
          "internalType": "uint256",
          "name": "",
          "type": "uint256"
        }
      ],
      "stateMutability": "view",
      "type": "function"
    },
    {
      "inputs": [
        {
          "internalType": "address",
          "name": "recipient",
          "type": "address"
        },
        {
          "internalType": "uint256",
          "name": "amount",
          "type": "uint256"
        }
      ],
      "name": "transfer",
      "outputs": [
        {
          "internalType": "bool",
          "name": "",
          "type": "bool"
        }
      ],
      "stateMutability": "nonpayable",
      "type": "function"
    },
    {
      "inputs": [
        {
          "internalType": "address",
          "name": "sender",
          "type": "address"
        },
        {
          "internalType": "address",
          "name": "recipient",
          "type": "address"
        },
        {
          "internalType": "uint256",
          "name": "amount",
          "type": "uint256"
        }
      ],
      "name": "transferFrom",
      "outputs": [
        {
          "internalType": "bool",
          "name": "",
          "type": "bool"
        }
      ],
      "stateMutability": "nonpayable",
      "type": "function"
    }
  ],
  "transactionHash": "0x0280848db07446fafd5537b104333ddb32fa96fb27231b7fcc585d303c201251",
  "args": [],
  "solcInputHash": "4c7ecc0cd49db7b75ef94096a1336c77",
  "bytecode": "0x6101406040527f6e71edae12b1b97f4d1f60370fef10105fa2faae0126114a169c64845d6126c9610120908152506001600b60006101000a81548160ff0219169083151502179055503480156200005557600080fd5b506040518060400160405280600481526020017f4b49574900000000000000000000000000000000000000000000000000000000815250806040518060400160405280600181526020017f31000000000000000000000000000000000000000000000000000000000000008152506040518060400160405280600481526020017f4b495749000000000000000000000000000000000000000000000000000000008152506040518060400160405280600481526020017f4b4957490000000000000000000000000000000000000000000000000000000081525081600590805190602001906200014792919062000edf565b5080600690805190602001906200016092919062000edf565b50505060008280519060200120905060008280519060200120905060007f8b73c3c69bb8fe3d512ecc4cf759cc79239f7b179b0ffacaa9a75d522b39400f90508260c081815250508160e081815250504660a08181525050620001cb8184846200029560201b60201c565b608081815250508061010081815250505050505050506200020f73edea1d58ad20e30ff03a660a773757e1c8209d13678ac7230489e80000620002d160201b60201c565b620002336000801b620002276200034960201b60201c565b6200035160201b60201c565b620002747f9f2df0fed2c77648de5860a4cc508cd0818c85b8b8a1ab4ceeef8d981c8956a6620002686200034960201b60201c565b6200035160201b60201c565b6000600b60006101000a81548160ff0219169083151502179055506200151f565b60008383834630604051602001620002b29594939291906200105e565b6040516020818303038152906040528051906020012090509392505050565b600b60009054906101000a900460ff166200032e576200032d73a15c8f207c1dd6790e231e5ba2e415b1630074416012606484620003109190620011fb565b6200031c919062001233565b6200039960201b6200175b1760201c565b5b6200034582826200039960201b6200175b1760201c565b5050565b600033905090565b6200036882826200045760201b620017e81760201c565b6200039481600160008581526020019081526020016000206200046d60201b620017f61790919060201c565b505050565b620003b08282620004a560201b620018261760201c565b620003c06200061f60201b60201c565b7bffffffffffffffffffffffffffffffffffffffffffffffffffffffff16620003ee6200063560201b60201c565b111562000432576040517f08c379a00000000000000000000000000000000000000000000000000000000081526004016200042990620010bb565b60405180910390fd5b62000451600a6200063f60201b6200198717836200065760201b60201c565b50505050565b6200046982826200090860201b60201c565b5050565b60006200049d836000018373ffffffffffffffffffffffffffffffffffffffff1660001b620009f960201b60201c565b905092915050565b600073ffffffffffffffffffffffffffffffffffffffff168273ffffffffffffffffffffffffffffffffffffffff16141562000518576040517f08c379a00000000000000000000000000000000000000000000000000000000081526004016200050f9062001121565b60405180910390fd5b6200052c6000838362000a7360201b60201c565b80600460008282546200054091906200119e565b9250508190555080600260008473ffffffffffffffffffffffffffffffffffffffff1673ffffffffffffffffffffffffffffffffffffffff16815260200190815260200160002060008282546200059891906200119e565b925050819055508173ffffffffffffffffffffffffffffffffffffffff16600073ffffffffffffffffffffffffffffffffffffffff167fddf252ad1be2c89b69c2b068fc378daa952ba7f163c4a11628f55a4df523b3ef83604051620005ff919062001143565b60405180910390a36200061b6000838362000a7860201b60201c565b5050565b60006bffffffffffffffffffffffff8016905090565b6000600454905090565b600081836200064f91906200119e565b905092915050565b60008060008580549050905060008114620006cc57856001826200067c919062001294565b8154811062000690576200068f620013da565b5b9060005260206000200160000160049054906101000a90047bffffffffffffffffffffffffffffffffffffffffffffffffffffffff16620006cf565b60005b7bffffffffffffffffffffffffffffffffffffffffffffffffffffffff169250620006fb83858760201c565b915060008111801562000754575043866001836200071a919062001294565b815481106200072e576200072d620013da565b5b9060005260206000200160000160009054906101000a900463ffffffff1663ffffffff16145b15620007f557620007708262000a9560201b6200199d1760201c565b8660018362000780919062001294565b81548110620007945762000793620013da565b5b9060005260206000200160000160046101000a8154817bffffffffffffffffffffffffffffffffffffffffffffffffffffffff02191690837bffffffffffffffffffffffffffffffffffffffffffffffffffffffff160217905550620008ff565b856040518060400160405280620008174362000b0360201b62001a081760201c565b63ffffffff168152602001620008388562000a9560201b6200199d1760201c565b7bffffffffffffffffffffffffffffffffffffffffffffffffffffffff168152509080600181540180825580915050600190039060005260206000200160009091909190915060008201518160000160006101000a81548163ffffffff021916908363ffffffff16021790555060208201518160000160046101000a8154817bffffffffffffffffffffffffffffffffffffffffffffffffffffffff02191690837bffffffffffffffffffffffffffffffffffffffffffffffffffffffff16021790555050505b50935093915050565b6200091a828262000b5960201b60201c565b620009f557600160008084815260200190815260200160002060000160008373ffffffffffffffffffffffffffffffffffffffff1673ffffffffffffffffffffffffffffffffffffffff16815260200190815260200160002060006101000a81548160ff0219169083151502179055506200099a6200034960201b60201c565b73ffffffffffffffffffffffffffffffffffffffff168173ffffffffffffffffffffffffffffffffffffffff16837f2f8788117e7eff1d82e926ec794901d17c78024a50270940304540a733656f0d60405160405180910390a45b5050565b600062000a0d838362000bc360201b60201c565b62000a6857826000018290806001815401808255809150506001900390600052602060002001600090919091909150558260000180549050836001016000848152602001908152602001600020819055506001905062000a6d565b600090505b92915050565b505050565b62000a9083838362000be660201b62001a5b1760201c565b505050565b60007bffffffffffffffffffffffffffffffffffffffffffffffffffffffff801682111562000afb576040517f08c379a000000000000000000000000000000000000000000000000000000000815260040162000af290620010dd565b60405180910390fd5b819050919050565b600063ffffffff801682111562000b51576040517f08c379a000000000000000000000000000000000000000000000000000000000815260040162000b4890620010ff565b60405180910390fd5b819050919050565b600080600084815260200190815260200160002060000160008373ffffffffffffffffffffffffffffffffffffffff1673ffffffffffffffffffffffffffffffffffffffff16815260200190815260200160002060009054906101000a900460ff16905092915050565b600080836001016000848152602001908152602001600020541415905092915050565b62000bfe83838362000c3660201b62001a861760201c565b62000c3162000c138462000c3b60201b60201c565b62000c248462000c3b60201b60201c565b8362000ca460201b60201c565b505050565b505050565b6000600860008373ffffffffffffffffffffffffffffffffffffffff1673ffffffffffffffffffffffffffffffffffffffff16815260200190815260200160002060009054906101000a900473ffffffffffffffffffffffffffffffffffffffff169050919050565b8173ffffffffffffffffffffffffffffffffffffffff168373ffffffffffffffffffffffffffffffffffffffff161415801562000ce15750600081115b1562000ec257600073ffffffffffffffffffffffffffffffffffffffff168373ffffffffffffffffffffffffffffffffffffffff161462000dd45760008062000d7b600960008773ffffffffffffffffffffffffffffffffffffffff1673ffffffffffffffffffffffffffffffffffffffff16815260200190815260200160002062000ec760201b62001a8b17856200065760201b60201c565b915091508473ffffffffffffffffffffffffffffffffffffffff167fdec2bacdd2f05b59de34da9b523dff8be42e5e38e818c82fdb0bae774387a724838360405162000dc992919062001160565b60405180910390a250505b600073ffffffffffffffffffffffffffffffffffffffff168273ffffffffffffffffffffffffffffffffffffffff161462000ec15760008062000e68600960008673ffffffffffffffffffffffffffffffffffffffff1673ffffffffffffffffffffffffffffffffffffffff1681526020019081526020016000206200063f60201b6200198717856200065760201b60201c565b915091508373ffffffffffffffffffffffffffffffffffffffff167fdec2bacdd2f05b59de34da9b523dff8be42e5e38e818c82fdb0bae774387a724838360405162000eb692919062001160565b60405180910390a250505b5b505050565b6000818362000ed7919062001294565b905092915050565b82805462000eed9062001317565b90600052602060002090601f01602090048101928262000f11576000855562000f5d565b82601f1062000f2c57805160ff191683800117855562000f5d565b8280016001018555821562000f5d579182015b8281111562000f5c57825182559160200191906001019062000f3f565b5b50905062000f6c919062000f70565b5090565b5b8082111562000f8b57600081600090555060010162000f71565b5090565b62000f9a81620012cf565b82525050565b62000fab81620012e3565b82525050565b600062000fc06030836200118d565b915062000fcd8262001409565b604082019050919050565b600062000fe76027836200118d565b915062000ff48262001458565b604082019050919050565b60006200100e6026836200118d565b91506200101b82620014a7565b604082019050919050565b600062001035601f836200118d565b91506200104282620014f6565b602082019050919050565b62001058816200130d565b82525050565b600060a08201905062001075600083018862000fa0565b62001084602083018762000fa0565b62001093604083018662000fa0565b620010a260608301856200104d565b620010b1608083018462000f8f565b9695505050505050565b60006020820190508181036000830152620010d68162000fb1565b9050919050565b60006020820190508181036000830152620010f88162000fd8565b9050919050565b600060208201905081810360008301526200111a8162000fff565b9050919050565b600060208201905081810360008301526200113c8162001026565b9050919050565b60006020820190506200115a60008301846200104d565b92915050565b60006040820190506200117760008301856200104d565b6200118660208301846200104d565b9392505050565b600082825260208201905092915050565b6000620011ab826200130d565b9150620011b8836200130d565b9250827fffffffffffffffffffffffffffffffffffffffffffffffffffffffffffffffff03821115620011f057620011ef6200134d565b5b828201905092915050565b600062001208826200130d565b915062001215836200130d565b9250826200122857620012276200137c565b5b828204905092915050565b600062001240826200130d565b91506200124d836200130d565b9250817fffffffffffffffffffffffffffffffffffffffffffffffffffffffffffffffff04831182151516156200128957620012886200134d565b5b828202905092915050565b6000620012a1826200130d565b9150620012ae836200130d565b925082821015620012c457620012c36200134d565b5b828203905092915050565b6000620012dc82620012ed565b9050919050565b6000819050919050565b600073ffffffffffffffffffffffffffffffffffffffff82169050919050565b6000819050919050565b600060028204905060018216806200133057607f821691505b60208210811415620013475762001346620013ab565b5b50919050565b7f4e487b7100000000000000000000000000000000000000000000000000000000600052601160045260246000fd5b7f4e487b7100000000000000000000000000000000000000000000000000000000600052601260045260246000fd5b7f4e487b7100000000000000000000000000000000000000000000000000000000600052602260045260246000fd5b7f4e487b7100000000000000000000000000000000000000000000000000000000600052603260045260246000fd5b7f4552433230566f7465733a20746f74616c20737570706c79207269736b73206f60008201527f766572666c6f77696e6720766f74657300000000000000000000000000000000602082015250565b7f53616665436173743a2076616c756520646f65736e27742066697420696e203260008201527f3234206269747300000000000000000000000000000000000000000000000000602082015250565b7f53616665436173743a2076616c756520646f65736e27742066697420696e203360008201527f3220626974730000000000000000000000000000000000000000000000000000602082015250565b7f45524332303a206d696e7420746f20746865207a65726f206164647265737300600082015250565b60805160a05160c05160e051610100516101205161505a6200156f600039600061145e01526000611ff2015260006120340152600061201301526000611f9f01526000611fc7015261505a6000f3fe608060405234801561001057600080fd5b50600436106102485760003560e01c806379cc67901161013b578063a9059cbb116100b8578063d53913931161007c578063d5391393146107ad578063d547741f146107cb578063dd62ed3e146107e7578063e1c7392a14610817578063f1127ed81461083557610248565b8063a9059cbb146106e5578063b4b5ea5714610715578063c3cda52014610745578063ca15c87314610761578063d505accf1461079157610248565b806391d14854116100ff57806391d148541461061957806395d89b41146106495780639ab24eb014610667578063a217fddf14610697578063a457c2d7146106b557610248565b806379cc67901461054f5780637ecebe001461056b5780638e539e8c1461059b5780638ea5220f146105cb5780639010d07c146105e957610248565b806339509351116101c95780635c19a95c1161018d5780635c19a95c146104855780636fae0f9e146104a15780636fcfff45146104bf57806370a08231146104ef578063782d6fe11461051f57610248565b806339509351146103bd5780633a46b1a8146103ed57806340c10f191461041d57806342966c6814610439578063587cde1e1461045557610248565b8063248a9ca311610210578063248a9ca3146103195780632f2ff15d14610349578063313ce567146103655780633644e5151461038357806336568abe146103a157610248565b806301ffc9a71461024d57806306fdde031461027d578063095ea7b31461029b57806318160ddd146102cb57806323b872dd146102e9575b600080fd5b6102676004803603810190610262919061389e565b610865565b6040516102749190613eb2565b60405180910390f35b6102856108df565b6040516102929190614026565b60405180910390f35b6102b560048036038101906102b091906136e4565b610971565b6040516102c29190613eb2565b60405180910390f35b6102d361098f565b6040516102e091906143a3565b60405180910390f35b61030360048036038101906102fe91906135ef565b610999565b6040516103109190613eb2565b60405180910390f35b610333600480360381019061032e91906137f1565b610a91565b6040516103409190613ecd565b60405180910390f35b610363600480360381019061035e919061381e565b610ab0565b005b61036d610ae4565b60405161037a9190614402565b60405180910390f35b61038b610aed565b6040516103989190613ecd565b60405180910390f35b6103bb60048036038101906103b6919061381e565b610afc565b005b6103d760048036038101906103d291906136e4565b610b30565b6040516103e49190613eb2565b60405180910390f35b610407600480360381019061040291906136e4565b610bdc565b60405161041491906143a3565b60405180910390f35b610437600480360381019061043291906136e4565b610c70565b005b610453600480360381019061044e91906138cb565b610cee565b005b61046f600480360381019061046a9190613582565b610d02565b60405161047c9190613e97565b60405180910390f35b61049f600480360381019061049a9190613582565b610d6b565b005b6104a9610d7f565b6040516104b69190613e97565b60405180910390f35b6104d960048036038101906104d49190613582565b610d97565b6040516104e691906143e7565b60405180910390f35b61050960048036038101906105049190613582565b610deb565b60405161051691906143a3565b60405180910390f35b610539600480360381019061053491906136e4565b610e34565b604051610546919061441d565b60405180910390f35b610569600480360381019061056491906136e4565b610e50565b005b61058560048036038101906105809190613582565b610ecb565b60405161059291906143a3565b60405180910390f35b6105b560048036038101906105b091906138cb565b610f1b565b6040516105c291906143a3565b60405180910390f35b6105d3610f71565b6040516105e09190613e97565b60405180910390f35b61060360048036038101906105fe919061385e565b610f89565b6040516106109190613e97565b60405180910390f35b610633600480360381019061062e919061381e565b610fb8565b6040516106409190613eb2565b60405180910390f35b610651611022565b60405161065e9190614026565b60405180910390f35b610681600480360381019061067c9190613582565b6110b4565b60405161068e91906143a3565b60405180910390f35b61069f6111c5565b6040516106ac9190613ecd565b60405180910390f35b6106cf60048036038101906106ca91906136e4565b6111cc565b6040516106dc9190613eb2565b60405180910390f35b6106ff60048036038101906106fa91906136e4565b6112b7565b60405161070c9190613eb2565b60405180910390f35b61072f600480360381019061072a9190613582565b6112d5565b60405161073c919061441d565b60405180910390f35b61075f600480360381019061075a9190613724565b6112ef565b005b61077b600480360381019061077691906137f1565b6113f3565b60405161078891906143a3565b60405180910390f35b6107ab60048036038101906107a69190613642565b611417565b005b6107b5611559565b6040516107c29190613ecd565b60405180910390f35b6107e560048036038101906107e0919061381e565b61157d565b005b61080160048036038101906107fc91906135af565b6115b1565b60405161080e91906143a3565b60405180910390f35b61081f611638565b60405161082c9190613eb2565b60405180910390f35b61084f600480360381019061084a91906137b1565b61164b565b60405161085c9190614388565b60405180910390f35b60007f5a05180f000000000000000000000000000000000000000000000000000000007bffffffffffffffffffffffffffffffffffffffffffffffffffffffff1916827bffffffffffffffffffffffffffffffffffffffffffffffffffffffff191614806108d857506108d782611aa1565b5b9050919050565b6060600580546108ee906146ac565b80601f016020809104026020016040519081016040528092919081815260200182805461091a906146ac565b80156109675780601f1061093c57610100808354040283529160200191610967565b820191906000526020600020905b81548152906001019060200180831161094a57829003601f168201915b5050505050905090565b600061098561097e611b1b565b8484611b23565b6001905092915050565b6000600454905090565b60006109a6848484611cee565b6000600360008673ffffffffffffffffffffffffffffffffffffffff1673ffffffffffffffffffffffffffffffffffffffff16815260200190815260200160002060006109f1611b1b565b73ffffffffffffffffffffffffffffffffffffffff1673ffffffffffffffffffffffffffffffffffffffff16815260200190815260200160002054905082811015610a71576040517f08c379a0000000000000000000000000000000000000000000000000000000008152600401610a6890614208565b60405180910390fd5b610a8585610a7d611b1b565b858403611b23565b60019150509392505050565b6000806000838152602001908152602001600020600101549050919050565b610aba8282611f72565b610adf81600160008581526020019081526020016000206117f690919063ffffffff16565b505050565b60006012905090565b6000610af7611f9b565b905090565b610b06828261205e565b610b2b81600160008581526020019081526020016000206120e190919063ffffffff16565b505050565b6000610bd2610b3d611b1b565b848460036000610b4b611b1b565b73ffffffffffffffffffffffffffffffffffffffff1673ffffffffffffffffffffffffffffffffffffffff16815260200190815260200160002060008873ffffffffffffffffffffffffffffffffffffffff1673ffffffffffffffffffffffffffffffffffffffff16815260200190815260200160002054610bcd919061445f565b611b23565b6001905092915050565b6000438210610c20576040517f08c379a0000000000000000000000000000000000000000000000000000000008152600401610c17906140c8565b60405180910390fd5b610c68600960008573ffffffffffffffffffffffffffffffffffffffff1673ffffffffffffffffffffffffffffffffffffffff16815260200190815260200160002083612111565b905092915050565b610ca17f9f2df0fed2c77648de5860a4cc508cd0818c85b8b8a1ab4ceeef8d981c8956a6610c9c611b1b565b610fb8565b610ce0576040517f08c379a0000000000000000000000000000000000000000000000000000000008152600401610cd790614268565b60405180910390fd5b610cea828261221d565b5050565b610cff610cf9611b1b565b82612276565b50565b6000600860008373ffffffffffffffffffffffffffffffffffffffff1673ffffffffffffffffffffffffffffffffffffffff16815260200190815260200160002060009054906101000a900473ffffffffffffffffffffffffffffffffffffffff169050919050565b610d7c610d76611b1b565b82612284565b50565b73edea1d58ad20e30ff03a660a773757e1c8209d1381565b6000610de4600960008473ffffffffffffffffffffffffffffffffffffffff1673ffffffffffffffffffffffffffffffffffffffff16815260200190815260200160002080549050611a08565b9050919050565b6000600260008373ffffffffffffffffffffffffffffffffffffffff1673ffffffffffffffffffffffffffffffffffffffff168152602001908152602001600020549050919050565b6000610e48610e438484610bdc565b61239e565b905092915050565b6000610e6383610e5e611b1b565b6115b1565b905081811015610ea8576040517f08c379a0000000000000000000000000000000000000000000000000000000008152600401610e9f90614288565b60405180910390fd5b610ebc83610eb4611b1b565b848403611b23565b610ec68383612276565b505050565b6000610f14600760008473ffffffffffffffffffffffffffffffffffffffff1673ffffffffffffffffffffffffffffffffffffffff1681526020019081526020016000206123f9565b9050919050565b6000438210610f5f576040517f08c379a0000000000000000000000000000000000000000000000000000000008152600401610f56906140c8565b60405180910390fd5b610f6a600a83612111565b9050919050565b73a15c8f207c1dd6790e231e5ba2e415b16300744181565b6000610fb0826001600086815260200190815260200160002061240790919063ffffffff16565b905092915050565b600080600084815260200190815260200160002060000160008373ffffffffffffffffffffffffffffffffffffffff1673ffffffffffffffffffffffffffffffffffffffff16815260200190815260200160002060009054906101000a900460ff16905092915050565b606060068054611031906146ac565b80601f016020809104026020016040519081016040528092919081815260200182805461105d906146ac565b80156110aa5780601f1061107f576101008083540402835291602001916110aa565b820191906000526020600020905b81548152906001019060200180831161108d57829003601f168201915b5050505050905090565b600080600960008473ffffffffffffffffffffffffffffffffffffffff1673ffffffffffffffffffffffffffffffffffffffff1681526020019081526020016000208054905090506000811461119c57600960008473ffffffffffffffffffffffffffffffffffffffff1673ffffffffffffffffffffffffffffffffffffffff1681526020019081526020016000206001826111509190614540565b81548110611161576111606147d5565b5b9060005260206000200160000160049054906101000a90047bffffffffffffffffffffffffffffffffffffffffffffffffffffffff1661119f565b60005b7bffffffffffffffffffffffffffffffffffffffffffffffffffffffff16915050919050565b6000801b81565b600080600360006111db611b1b565b73ffffffffffffffffffffffffffffffffffffffff1673ffffffffffffffffffffffffffffffffffffffff16815260200190815260200160002060008573ffffffffffffffffffffffffffffffffffffffff1673ffffffffffffffffffffffffffffffffffffffff16815260200190815260200160002054905082811015611298576040517f08c379a000000000000000000000000000000000000000000000000000000000815260040161128f90614328565b60405180910390fd5b6112ac6112a3611b1b565b85858403611b23565b600191505092915050565b60006112cb6112c4611b1b565b8484611cee565b6001905092915050565b60006112e86112e3836110b4565b61239e565b9050919050565b83421115611332576040517f08c379a0000000000000000000000000000000000000000000000000000000008152600401611329906140e8565b60405180910390fd5b600061139461138c7fe48329057bfd03d55e49b547132e39cffd9c1820ad7b9d4c5307691425d15adf8989896040516020016113719493929190613f49565b60405160208183030381529060405280519060200120612421565b85858561243b565b905061139f816125c6565b86146113e0576040517f08c379a00000000000000000000000000000000000000000000000000000000081526004016113d790614128565b60405180910390fd5b6113ea8188612284565b50505050505050565b600061141060016000848152602001908152602001600020612624565b9050919050565b8342111561145a576040517f08c379a000000000000000000000000000000000000000000000000000000000815260040161145190614168565b60405180910390fd5b60007f00000000000000000000000000000000000000000000000000000000000000008888886114898c6125c6565b8960405160200161149f96959493929190613ee8565b60405160208183030381529060405280519060200120905060006114c282612421565b905060006114d28287878761243b565b90508973ffffffffffffffffffffffffffffffffffffffff168173ffffffffffffffffffffffffffffffffffffffff1614611542576040517f08c379a0000000000000000000000000000000000000000000000000000000008152600401611539906141e8565b60405180910390fd5b61154d8a8a8a611b23565b50505050505050505050565b7f9f2df0fed2c77648de5860a4cc508cd0818c85b8b8a1ab4ceeef8d981c8956a681565b6115878282612639565b6115ac81600160008581526020019081526020016000206120e190919063ffffffff16565b505050565b6000600360008473ffffffffffffffffffffffffffffffffffffffff1673ffffffffffffffffffffffffffffffffffffffff16815260200190815260200160002060008373ffffffffffffffffffffffffffffffffffffffff1673ffffffffffffffffffffffffffffffffffffffff16815260200190815260200160002054905092915050565b600b60009054906101000a900460ff1681565b6116536134c6565b600960008473ffffffffffffffffffffffffffffffffffffffff1673ffffffffffffffffffffffffffffffffffffffff1681526020019081526020016000208263ffffffff16815481106116aa576116a96147d5565b5b906000526020600020016040518060400160405290816000820160009054906101000a900463ffffffff1663ffffffff1663ffffffff1681526020016000820160049054906101000a90047bffffffffffffffffffffffffffffffffffffffffffffffffffffffff167bffffffffffffffffffffffffffffffffffffffffffffffffffffffff167bffffffffffffffffffffffffffffffffffffffffffffffffffffffff1681525050905092915050565b6117658282611826565b61176d612662565b7bffffffffffffffffffffffffffffffffffffffffffffffffffffffff1661179361098f565b11156117d4576040517f08c379a00000000000000000000000000000000000000000000000000000000081526004016117cb90614228565b60405180910390fd5b6117e2600a61198783612678565b50505050565b6117f282826128f0565b5050565b600061181e836000018373ffffffffffffffffffffffffffffffffffffffff1660001b6129d0565b905092915050565b600073ffffffffffffffffffffffffffffffffffffffff168273ffffffffffffffffffffffffffffffffffffffff161415611896576040517f08c379a000000000000000000000000000000000000000000000000000000000815260040161188d90614368565b60405180910390fd5b6118a260008383612a40565b80600460008282546118b4919061445f565b9250508190555080600260008473ffffffffffffffffffffffffffffffffffffffff1673ffffffffffffffffffffffffffffffffffffffff168152602001908152602001600020600082825461190a919061445f565b925050819055508173ffffffffffffffffffffffffffffffffffffffff16600073ffffffffffffffffffffffffffffffffffffffff167fddf252ad1be2c89b69c2b068fc378daa952ba7f163c4a11628f55a4df523b3ef8360405161196f91906143a3565b60405180910390a361198360008383612a45565b5050565b60008183611995919061445f565b905092915050565b60007bffffffffffffffffffffffffffffffffffffffffffffffffffffffff8016821115611a00576040517f08c379a00000000000000000000000000000000000000000000000000000000081526004016119f790614248565b60405180910390fd5b819050919050565b600063ffffffff8016821115611a53576040517f08c379a0000000000000000000000000000000000000000000000000000000008152600401611a4a906142e8565b60405180910390fd5b819050919050565b611a66838383611a86565b611a81611a7284610d02565b611a7b84610d02565b83612a55565b505050565b505050565b60008183611a999190614540565b905092915050565b60007f7965db0b000000000000000000000000000000000000000000000000000000007bffffffffffffffffffffffffffffffffffffffffffffffffffffffff1916827bffffffffffffffffffffffffffffffffffffffffffffffffffffffff19161480611b145750611b1382612c4e565b5b9050919050565b600033905090565b600073ffffffffffffffffffffffffffffffffffffffff168373ffffffffffffffffffffffffffffffffffffffff161415611b93576040517f08c379a0000000000000000000000000000000000000000000000000000000008152600401611b8a90614308565b60405180910390fd5b600073ffffffffffffffffffffffffffffffffffffffff168273ffffffffffffffffffffffffffffffffffffffff161415611c03576040517f08c379a0000000000000000000000000000000000000000000000000000000008152600401611bfa90614148565b60405180910390fd5b80600360008573ffffffffffffffffffffffffffffffffffffffff1673ffffffffffffffffffffffffffffffffffffffff16815260200190815260200160002060008473ffffffffffffffffffffffffffffffffffffffff1673ffffffffffffffffffffffffffffffffffffffff168152602001908152602001600020819055508173ffffffffffffffffffffffffffffffffffffffff168373ffffffffffffffffffffffffffffffffffffffff167f8c5be1e5ebec7d5bd14f71427d1e84f3dd0314c0f7b2291e5b200ac8c7c3b92583604051611ce191906143a3565b60405180910390a3505050565b600073ffffffffffffffffffffffffffffffffffffffff168373ffffffffffffffffffffffffffffffffffffffff161415611d5e576040517f08c379a0000000000000000000000000000000000000000000000000000000008152600401611d55906142c8565b60405180910390fd5b600073ffffffffffffffffffffffffffffffffffffffff168273ffffffffffffffffffffffffffffffffffffffff161415611dce576040517f08c379a0000000000000000000000000000000000000000000000000000000008152600401611dc590614088565b60405180910390fd5b611dd9838383612a40565b6000600260008573ffffffffffffffffffffffffffffffffffffffff1673ffffffffffffffffffffffffffffffffffffffff16815260200190815260200160002054905081811015611e60576040517f08c379a0000000000000000000000000000000000000000000000000000000008152600401611e5790614188565b60405180910390fd5b818103600260008673ffffffffffffffffffffffffffffffffffffffff1673ffffffffffffffffffffffffffffffffffffffff1681526020019081526020016000208190555081600260008573ffffffffffffffffffffffffffffffffffffffff1673ffffffffffffffffffffffffffffffffffffffff1681526020019081526020016000206000828254611ef5919061445f565b925050819055508273ffffffffffffffffffffffffffffffffffffffff168473ffffffffffffffffffffffffffffffffffffffff167fddf252ad1be2c89b69c2b068fc378daa952ba7f163c4a11628f55a4df523b3ef84604051611f5991906143a3565b60405180910390a3611f6c848484612a45565b50505050565b611f7b82610a91565b611f8c81611f87611b1b565b612cb8565b611f9683836128f0565b505050565b60007f0000000000000000000000000000000000000000000000000000000000000000461415611fed577f0000000000000000000000000000000000000000000000000000000000000000905061205b565b6120587f00000000000000000000000000000000000000000000000000000000000000007f00000000000000000000000000000000000000000000000000000000000000007f0000000000000000000000000000000000000000000000000000000000000000612d55565b90505b90565b612066611b1b565b73ffffffffffffffffffffffffffffffffffffffff168173ffffffffffffffffffffffffffffffffffffffff16146120d3576040517f08c379a00000000000000000000000000000000000000000000000000000000081526004016120ca90614348565b60405180910390fd5b6120dd8282612d8f565b5050565b6000612109836000018373ffffffffffffffffffffffffffffffffffffffff1660001b612e70565b905092915050565b6000808380549050905060005b818110156121905760006121328284612f84565b905084868281548110612148576121476147d5565b5b9060005260206000200160000160009054906101000a900463ffffffff1663ffffffff16111561217a5780925061218a565b600181612187919061445f565b91505b5061211e565b600082146121f257846001836121a69190614540565b815481106121b7576121b66147d5565b5b9060005260206000200160000160049054906101000a90047bffffffffffffffffffffffffffffffffffffffffffffffffffffffff166121f5565b60005b7bffffffffffffffffffffffffffffffffffffffffffffffffffffffff169250505092915050565b600b60009054906101000a900460ff166122685761226773a15c8f207c1dd6790e231e5ba2e415b163007441601260648461225891906144b5565b61226291906144e6565b61175b565b5b612272828261175b565b5050565b6122808282612feb565b5050565b600061228f83610d02565b9050600061229c84610deb565b905082600860008673ffffffffffffffffffffffffffffffffffffffff1673ffffffffffffffffffffffffffffffffffffffff16815260200190815260200160002060006101000a81548173ffffffffffffffffffffffffffffffffffffffff021916908373ffffffffffffffffffffffffffffffffffffffff1602179055508273ffffffffffffffffffffffffffffffffffffffff168273ffffffffffffffffffffffffffffffffffffffff168573ffffffffffffffffffffffffffffffffffffffff167f3134e8a2e6d97e929a7e54011ea5485d7d196dd5f0ba4d4ef95803e8e3fc257f60405160405180910390a4612398828483612a55565b50505050565b60006bffffffffffffffffffffffff80168211156123f1576040517f08c379a00000000000000000000000000000000000000000000000000000000081526004016123e8906140a8565b60405180910390fd5b819050919050565b600081600001549050919050565b60006124168360000183613009565b60001c905092915050565b600061243461242e611f9b565b83613034565b9050919050565b60007f7fffffffffffffffffffffffffffffff5d576e7357a4501ddfe92f46681b20a08260001c11156124a3576040517f08c379a000000000000000000000000000000000000000000000000000000000815260040161249a906141a8565b60405180910390fd5b601b8460ff1614806124b85750601c8460ff16145b6124f7576040517f08c379a00000000000000000000000000000000000000000000000000000000081526004016124ee906141c8565b60405180910390fd5b60006001868686866040516000815260200160405260405161251c9493929190613fe1565b6020604051602081039080840390855afa15801561253e573d6000803e3d6000fd5b505050602060405103519050600073ffffffffffffffffffffffffffffffffffffffff168173ffffffffffffffffffffffffffffffffffffffff1614156125ba576040517f08c379a00000000000000000000000000000000000000000000000000000000081526004016125b190614048565b60405180910390fd5b80915050949350505050565b600080600760008473ffffffffffffffffffffffffffffffffffffffff1673ffffffffffffffffffffffffffffffffffffffff1681526020019081526020016000209050612613816123f9565b915061261e81613067565b50919050565b60006126328260000161307d565b9050919050565b61264282610a91565b6126538161264e611b1b565b612cb8565b61265d8383612d8f565b505050565b60006bffffffffffffffffffffffff8016905090565b600080600085805490509050600081146126e6578560018261269a9190614540565b815481106126ab576126aa6147d5565b5b9060005260206000200160000160049054906101000a90047bffffffffffffffffffffffffffffffffffffffffffffffffffffffff166126e9565b60005b7bffffffffffffffffffffffffffffffffffffffffffffffffffffffff16925061271783858763ffffffff16565b915060008111801561276a575043866001836127339190614540565b81548110612744576127436147d5565b5b9060005260206000200160000160009054906101000a900463ffffffff1663ffffffff16145b156127f7576127788261199d565b866001836127869190614540565b81548110612797576127966147d5565b5b9060005260206000200160000160046101000a8154817bffffffffffffffffffffffffffffffffffffffffffffffffffffffff02191690837bffffffffffffffffffffffffffffffffffffffffffffffffffffffff1602179055506128e7565b85604051806040016040528061280c43611a08565b63ffffffff1681526020016128208561199d565b7bffffffffffffffffffffffffffffffffffffffffffffffffffffffff168152509080600181540180825580915050600190039060005260206000200160009091909190915060008201518160000160006101000a81548163ffffffff021916908363ffffffff16021790555060208201518160000160046101000a8154817bffffffffffffffffffffffffffffffffffffffffffffffffffffffff02191690837bffffffffffffffffffffffffffffffffffffffffffffffffffffffff16021790555050505b50935093915050565b6128fa8282610fb8565b6129cc57600160008084815260200190815260200160002060000160008373ffffffffffffffffffffffffffffffffffffffff1673ffffffffffffffffffffffffffffffffffffffff16815260200190815260200160002060006101000a81548160ff021916908315150217905550612971611b1b565b73ffffffffffffffffffffffffffffffffffffffff168173ffffffffffffffffffffffffffffffffffffffff16837f2f8788117e7eff1d82e926ec794901d17c78024a50270940304540a733656f0d60405160405180910390a45b5050565b60006129dc838361308e565b612a35578260000182908060018154018082558091505060019003906000526020600020016000909190919091505582600001805490508360010160008481526020019081526020016000208190555060019050612a3a565b600090505b92915050565b505050565b612a50838383611a5b565b505050565b8173ffffffffffffffffffffffffffffffffffffffff168373ffffffffffffffffffffffffffffffffffffffff1614158015612a915750600081115b15612c4957600073ffffffffffffffffffffffffffffffffffffffff168373ffffffffffffffffffffffffffffffffffffffff1614612b6f57600080612b18600960008773ffffffffffffffffffffffffffffffffffffffff1673ffffffffffffffffffffffffffffffffffffffff168152602001908152602001600020611a8b85612678565b915091508473ffffffffffffffffffffffffffffffffffffffff167fdec2bacdd2f05b59de34da9b523dff8be42e5e38e818c82fdb0bae774387a7248383604051612b649291906143be565b60405180910390a250505b600073ffffffffffffffffffffffffffffffffffffffff168273ffffffffffffffffffffffffffffffffffffffff1614612c4857600080612bf1600960008673ffffffffffffffffffffffffffffffffffffffff1673ffffffffffffffffffffffffffffffffffffffff16815260200190815260200160002061198785612678565b915091508373ffffffffffffffffffffffffffffffffffffffff167fdec2bacdd2f05b59de34da9b523dff8be42e5e38e818c82fdb0bae774387a7248383604051612c3d9291906143be565b60405180910390a250505b5b505050565b60007f01ffc9a7000000000000000000000000000000000000000000000000000000007bffffffffffffffffffffffffffffffffffffffffffffffffffffffff1916827bffffffffffffffffffffffffffffffffffffffffffffffffffffffff1916149050919050565b612cc28282610fb8565b612d5157612ce78173ffffffffffffffffffffffffffffffffffffffff1660146130b1565b612cf58360001c60206130b1565b604051602001612d06929190613e5d565b6040516020818303038152906040526040517f08c379a0000000000000000000000000000000000000000000000000000000008152600401612d489190614026565b60405180910390fd5b5050565b60008383834630604051602001612d70959493929190613f8e565b6040516020818303038152906040528051906020012090509392505050565b612d998282610fb8565b15612e6c57600080600084815260200190815260200160002060000160008373ffffffffffffffffffffffffffffffffffffffff1673ffffffffffffffffffffffffffffffffffffffff16815260200190815260200160002060006101000a81548160ff021916908315150217905550612e11611b1b565b73ffffffffffffffffffffffffffffffffffffffff168173ffffffffffffffffffffffffffffffffffffffff16837ff6391f5c32d9c69d2a47ea670b442974b53935d1edc7fd64eb21e047a839171b60405160405180910390a45b5050565b60008083600101600084815260200190815260200160002054905060008114612f78576000600182612ea29190614540565b9050600060018660000180549050612eba9190614540565b9050818114612f29576000866000018281548110612edb57612eda6147d5565b5b9060005260206000200154905080876000018481548110612eff57612efe6147d5565b5b90600052602060002001819055508387600101600083815260200190815260200160002081905550505b85600001805480612f3d57612f3c6147a6565b5b600190038181906000526020600020016000905590558560010160008681526020019081526020016000206000905560019350505050612f7e565b60009150505b92915050565b600060028083612f9491906146e8565b600285612fa191906146e8565b612fab919061445f565b612fb591906144b5565b600283612fc291906144b5565b600285612fcf91906144b5565b612fd9919061445f565b612fe3919061445f565b905092915050565b612ff582826132ed565b613003600a611a8b83612678565b50505050565b6000826000018281548110613021576130206147d5565b5b9060005260206000200154905092915050565b60008282604051602001613049929190613e26565b60405160208183030381529060405280519060200120905092915050565b6001816000016000828254019250508190555050565b600081600001805490509050919050565b600080836001016000848152602001908152602001600020541415905092915050565b6060600060028360026130c491906144e6565b6130ce919061445f565b67ffffffffffffffff8111156130e7576130e6614804565b5b6040519080825280601f01601f1916602001820160405280156131195781602001600182028036833780820191505090505b5090507f300000000000000000000000000000000000000000000000000000000000000081600081518110613151576131506147d5565b5b60200101907effffffffffffffffffffffffffffffffffffffffffffffffffffffffffffff1916908160001a9053507f7800000000000000000000000000000000000000000000000000000000000000816001815181106131b5576131b46147d5565b5b60200101907effffffffffffffffffffffffffffffffffffffffffffffffffffffffffffff1916908160001a905350600060018460026131f591906144e6565b6131ff919061445f565b90505b600181111561329f577f3031323334353637383961626364656600000000000000000000000000000000600f861660108110613241576132406147d5565b5b1a60f81b828281518110613258576132576147d5565b5b60200101907effffffffffffffffffffffffffffffffffffffffffffffffffffffffffffff1916908160001a905350600485901c94508061329890614682565b9050613202565b50600084146132e3576040517f08c379a00000000000000000000000000000000000000000000000000000000081526004016132da90614068565b60405180910390fd5b8091505092915050565b600073ffffffffffffffffffffffffffffffffffffffff168273ffffffffffffffffffffffffffffffffffffffff16141561335d576040517f08c379a0000000000000000000000000000000000000000000000000000000008152600401613354906142a8565b60405180910390fd5b61336982600083612a40565b6000600260008473ffffffffffffffffffffffffffffffffffffffff1673ffffffffffffffffffffffffffffffffffffffff168152602001908152602001600020549050818110156133f0576040517f08c379a00000000000000000000000000000000000000000000000000000000081526004016133e790614108565b60405180910390fd5b818103600260008573ffffffffffffffffffffffffffffffffffffffff1673ffffffffffffffffffffffffffffffffffffffff1681526020019081526020016000208190555081600460008282546134489190614540565b92505081905550600073ffffffffffffffffffffffffffffffffffffffff168373ffffffffffffffffffffffffffffffffffffffff167fddf252ad1be2c89b69c2b068fc378daa952ba7f163c4a11628f55a4df523b3ef846040516134ad91906143a3565b60405180910390a36134c183600084612a45565b505050565b6040518060400160405280600063ffffffff16815260200160007bffffffffffffffffffffffffffffffffffffffffffffffffffffffff1681525090565b60008135905061351381614f9a565b92915050565b60008135905061352881614fb1565b92915050565b60008135905061353d81614fc8565b92915050565b60008135905061355281614fdf565b92915050565b60008135905061356781614ff6565b92915050565b60008135905061357c8161500d565b92915050565b60006020828403121561359857613597614833565b5b60006135a684828501613504565b91505092915050565b600080604083850312156135c6576135c5614833565b5b60006135d485828601613504565b92505060206135e585828601613504565b9150509250929050565b60008060006060848603121561360857613607614833565b5b600061361686828701613504565b935050602061362786828701613504565b925050604061363886828701613543565b9150509250925092565b600080600080600080600060e0888a03121561366157613660614833565b5b600061366f8a828b01613504565b97505060206136808a828b01613504565b96505060406136918a828b01613543565b95505060606136a28a828b01613543565b94505060806136b38a828b0161356d565b93505060a06136c48a828b01613519565b92505060c06136d58a828b01613519565b91505092959891949750929550565b600080604083850312156136fb576136fa614833565b5b600061370985828601613504565b925050602061371a85828601613543565b9150509250929050565b60008060008060008060c0878903121561374157613740614833565b5b600061374f89828a01613504565b965050602061376089828a01613543565b955050604061377189828a01613543565b945050606061378289828a0161356d565b935050608061379389828a01613519565b92505060a06137a489828a01613519565b9150509295509295509295565b600080604083850312156137c8576137c7614833565b5b60006137d685828601613504565b92505060206137e785828601613558565b9150509250929050565b60006020828403121561380757613806614833565b5b600061381584828501613519565b91505092915050565b6000806040838503121561383557613834614833565b5b600061384385828601613519565b925050602061385485828601613504565b9150509250929050565b6000806040838503121561387557613874614833565b5b600061388385828601613519565b925050602061389485828601613543565b9150509250929050565b6000602082840312156138b4576138b3614833565b5b60006138c28482850161352e565b91505092915050565b6000602082840312156138e1576138e0614833565b5b60006138ef84828501613543565b91505092915050565b61390181614574565b82525050565b61391081614586565b82525050565b61391f81614592565b82525050565b61393661393182614592565b6146de565b82525050565b600061394782614438565b6139518185614443565b935061396181856020860161464f565b61396a81614838565b840191505092915050565b600061398082614438565b61398a8185614454565b935061399a81856020860161464f565b80840191505092915050565b60006139b3601883614443565b91506139be82614849565b602082019050919050565b60006139d6602083614443565b91506139e182614872565b602082019050919050565b60006139f9602383614443565b9150613a048261489b565b604082019050919050565b6000613a1c602683614443565b9150613a27826148ea565b604082019050919050565b6000613a3f601f83614443565b9150613a4a82614939565b602082019050919050565b6000613a62601d83614443565b9150613a6d82614962565b602082019050919050565b6000613a85602283614443565b9150613a908261498b565b604082019050919050565b6000613aa8601983614443565b9150613ab3826149da565b602082019050919050565b6000613acb602283614443565b9150613ad682614a03565b604082019050919050565b6000613aee600283614454565b9150613af982614a52565b600282019050919050565b6000613b11601d83614443565b9150613b1c82614a7b565b602082019050919050565b6000613b34602683614443565b9150613b3f82614aa4565b604082019050919050565b6000613b57602283614443565b9150613b6282614af3565b604082019050919050565b6000613b7a602283614443565b9150613b8582614b42565b604082019050919050565b6000613b9d601e83614443565b9150613ba882614b91565b602082019050919050565b6000613bc0602883614443565b9150613bcb82614bba565b604082019050919050565b6000613be3603083614443565b9150613bee82614c09565b604082019050919050565b6000613c06602783614443565b9150613c1182614c58565b604082019050919050565b6000613c29603683614443565b9150613c3482614ca7565b604082019050919050565b6000613c4c602483614443565b9150613c5782614cf6565b604082019050919050565b6000613c6f602183614443565b9150613c7a82614d45565b604082019050919050565b6000613c92602583614443565b9150613c9d82614d94565b604082019050919050565b6000613cb5602683614443565b9150613cc082614de3565b604082019050919050565b6000613cd8602483614443565b9150613ce382614e32565b604082019050919050565b6000613cfb601783614454565b9150613d0682614e81565b601782019050919050565b6000613d1e602583614443565b9150613d2982614eaa565b604082019050919050565b6000613d41601183614454565b9150613d4c82614ef9565b601182019050919050565b6000613d64602f83614443565b9150613d6f82614f22565b604082019050919050565b6000613d87601f83614443565b9150613d9282614f71565b602082019050919050565b604082016000820151613db36000850182613dea565b506020820151613dc66020850182613dcc565b50505050565b613dd5816145e8565b82525050565b613de481614610565b82525050565b613df38161461a565b82525050565b613e028161461a565b82525050565b613e118161462a565b82525050565b613e2081614637565b82525050565b6000613e3182613ae1565b9150613e3d8285613925565b602082019150613e4d8284613925565b6020820191508190509392505050565b6000613e6882613cee565b9150613e748285613975565b9150613e7f82613d34565b9150613e8b8284613975565b91508190509392505050565b6000602082019050613eac60008301846138f8565b92915050565b6000602082019050613ec76000830184613907565b92915050565b6000602082019050613ee26000830184613916565b92915050565b600060c082019050613efd6000830189613916565b613f0a60208301886138f8565b613f1760408301876138f8565b613f246060830186613ddb565b613f316080830185613ddb565b613f3e60a0830184613ddb565b979650505050505050565b6000608082019050613f5e6000830187613916565b613f6b60208301866138f8565b613f786040830185613ddb565b613f856060830184613ddb565b95945050505050565b600060a082019050613fa36000830188613916565b613fb06020830187613916565b613fbd6040830186613916565b613fca6060830185613ddb565b613fd760808301846138f8565b9695505050505050565b6000608082019050613ff66000830187613916565b6140036020830186613e08565b6140106040830185613916565b61401d6060830184613916565b95945050505050565b60006020820190508181036000830152614040818461393c565b905092915050565b60006020820190508181036000830152614061816139a6565b9050919050565b60006020820190508181036000830152614081816139c9565b9050919050565b600060208201905081810360008301526140a1816139ec565b9050919050565b600060208201905081810360008301526140c181613a0f565b9050919050565b600060208201905081810360008301526140e181613a32565b9050919050565b6000602082019050818103600083015261410181613a55565b9050919050565b6000602082019050818103600083015261412181613a78565b9050919050565b6000602082019050818103600083015261414181613a9b565b9050919050565b6000602082019050818103600083015261416181613abe565b9050919050565b6000602082019050818103600083015261418181613b04565b9050919050565b600060208201905081810360008301526141a181613b27565b9050919050565b600060208201905081810360008301526141c181613b4a565b9050919050565b600060208201905081810360008301526141e181613b6d565b9050919050565b6000602082019050818103600083015261420181613b90565b9050919050565b6000602082019050818103600083015261422181613bb3565b9050919050565b6000602082019050818103600083015261424181613bd6565b9050919050565b6000602082019050818103600083015261426181613bf9565b9050919050565b6000602082019050818103600083015261428181613c1c565b9050919050565b600060208201905081810360008301526142a181613c3f565b9050919050565b600060208201905081810360008301526142c181613c62565b9050919050565b600060208201905081810360008301526142e181613c85565b9050919050565b6000602082019050818103600083015261430181613ca8565b9050919050565b6000602082019050818103600083015261432181613ccb565b9050919050565b6000602082019050818103600083015261434181613d11565b9050919050565b6000602082019050818103600083015261436181613d57565b9050919050565b6000602082019050818103600083015261438181613d7a565b9050919050565b600060408201905061439d6000830184613d9d565b92915050565b60006020820190506143b86000830184613ddb565b92915050565b60006040820190506143d36000830185613ddb565b6143e06020830184613ddb565b9392505050565b60006020820190506143fc6000830184613df9565b92915050565b60006020820190506144176000830184613e08565b92915050565b60006020820190506144326000830184613e17565b92915050565b600081519050919050565b600082825260208201905092915050565b600081905092915050565b600061446a82614610565b915061447583614610565b9250827fffffffffffffffffffffffffffffffffffffffffffffffffffffffffffffffff038211156144aa576144a9614719565b5b828201905092915050565b60006144c082614610565b91506144cb83614610565b9250826144db576144da614748565b5b828204905092915050565b60006144f182614610565b91506144fc83614610565b9250817fffffffffffffffffffffffffffffffffffffffffffffffffffffffffffffffff048311821515161561453557614534614719565b5b828202905092915050565b600061454b82614610565b915061455683614610565b92508282101561456957614568614719565b5b828203905092915050565b600061457f826145c8565b9050919050565b60008115159050919050565b6000819050919050565b60007fffffffff0000000000000000000000000000000000000000000000000000000082169050919050565b600073ffffffffffffffffffffffffffffffffffffffff82169050919050565b60007bffffffffffffffffffffffffffffffffffffffffffffffffffffffff82169050919050565b6000819050919050565b600063ffffffff82169050919050565b600060ff82169050919050565b60006bffffffffffffffffffffffff82169050919050565b60005b8381101561466d578082015181840152602081019050614652565b8381111561467c576000848401525b50505050565b600061468d82614610565b915060008214156146a1576146a0614719565b5b600182039050919050565b600060028204905060018216806146c457607f821691505b602082108114156146d8576146d7614777565b5b50919050565b6000819050919050565b60006146f382614610565b91506146fe83614610565b92508261470e5761470d614748565b5b828206905092915050565b7f4e487b7100000000000000000000000000000000000000000000000000000000600052601160045260246000fd5b7f4e487b7100000000000000000000000000000000000000000000000000000000600052601260045260246000fd5b7f4e487b7100000000000000000000000000000000000000000000000000000000600052602260045260246000fd5b7f4e487b7100000000000000000000000000000000000000000000000000000000600052603160045260246000fd5b7f4e487b7100000000000000000000000000000000000000000000000000000000600052603260045260246000fd5b7f4e487b7100000000000000000000000000000000000000000000000000000000600052604160045260246000fd5b600080fd5b6000601f19601f8301169050919050565b7f45434453413a20696e76616c6964207369676e61747572650000000000000000600082015250565b7f537472696e67733a20686578206c656e67746820696e73756666696369656e74600082015250565b7f45524332303a207472616e7366657220746f20746865207a65726f206164647260008201527f6573730000000000000000000000000000000000000000000000000000000000602082015250565b7f53616665436173743a2076616c756520646f65736e27742066697420696e203960008201527f3620626974730000000000000000000000000000000000000000000000000000602082015250565b7f4552433230566f7465733a20626c6f636b206e6f7420796574206d696e656400600082015250565b7f4552433230566f7465733a207369676e61747572652065787069726564000000600082015250565b7f45524332303a206275726e20616d6f756e7420657863656564732062616c616e60008201527f6365000000000000000000000000000000000000000000000000000000000000602082015250565b7f4552433230566f7465733a20696e76616c6964206e6f6e636500000000000000600082015250565b7f45524332303a20617070726f766520746f20746865207a65726f20616464726560008201527f7373000000000000000000000000000000000000000000000000000000000000602082015250565b7f1901000000000000000000000000000000000000000000000000000000000000600082015250565b7f45524332305065726d69743a206578706972656420646561646c696e65000000600082015250565b7f45524332303a207472616e7366657220616d6f756e742065786365656473206260008201527f616c616e63650000000000000000000000000000000000000000000000000000602082015250565b7f45434453413a20696e76616c6964207369676e6174757265202773272076616c60008201527f7565000000000000000000000000000000000000000000000000000000000000602082015250565b7f45434453413a20696e76616c6964207369676e6174757265202776272076616c60008201527f7565000000000000000000000000000000000000000000000000000000000000602082015250565b7f45524332305065726d69743a20696e76616c6964207369676e61747572650000600082015250565b7f45524332303a207472616e7366657220616d6f756e742065786365656473206160008201527f6c6c6f77616e6365000000000000000000000000000000000000000000000000602082015250565b7f4552433230566f7465733a20746f74616c20737570706c79207269736b73206f60008201527f766572666c6f77696e6720766f74657300000000000000000000000000000000602082015250565b7f53616665436173743a2076616c756520646f65736e27742066697420696e203260008201527f3234206269747300000000000000000000000000000000000000000000000000602082015250565b7f45524332305072657365744d696e7465725061757365723a206d75737420686160008201527f7665206d696e74657220726f6c6520746f206d696e7400000000000000000000602082015250565b7f45524332303a206275726e20616d6f756e74206578636565647320616c6c6f7760008201527f616e636500000000000000000000000000000000000000000000000000000000602082015250565b7f45524332303a206275726e2066726f6d20746865207a65726f2061646472657360008201527f7300000000000000000000000000000000000000000000000000000000000000602082015250565b7f45524332303a207472616e736665722066726f6d20746865207a65726f20616460008201527f6472657373000000000000000000000000000000000000000000000000000000602082015250565b7f53616665436173743a2076616c756520646f65736e27742066697420696e203360008201527f3220626974730000000000000000000000000000000000000000000000000000602082015250565b7f45524332303a20617070726f76652066726f6d20746865207a65726f2061646460008201527f7265737300000000000000000000000000000000000000000000000000000000602082015250565b7f416363657373436f6e74726f6c3a206163636f756e7420000000000000000000600082015250565b7f45524332303a2064656372656173656420616c6c6f77616e63652062656c6f7760008201527f207a65726f000000000000000000000000000000000000000000000000000000602082015250565b7f206973206d697373696e6720726f6c6520000000000000000000000000000000600082015250565b7f416363657373436f6e74726f6c3a2063616e206f6e6c792072656e6f756e636560008201527f20726f6c657320666f722073656c660000000000000000000000000000000000602082015250565b7f45524332303a206d696e7420746f20746865207a65726f206164647265737300600082015250565b614fa381614574565b8114614fae57600080fd5b50565b614fba81614592565b8114614fc557600080fd5b50565b614fd18161459c565b8114614fdc57600080fd5b50565b614fe881614610565b8114614ff357600080fd5b50565b614fff8161461a565b811461500a57600080fd5b50565b6150168161462a565b811461502157600080fd5b5056fea26469706673582212206610705238828f43abd4de6dbde183e830e16c82b51671d461d7b0a1b2b059d364736f6c63430008060033",
  "devdoc": {
    "kind": "dev",
    "methods": {
      "DOMAIN_SEPARATOR()": {
        "details": "See {IERC20Permit-DOMAIN_SEPARATOR}."
      },
      "allowance(address,address)": {
        "details": "See {IERC20-allowance}."
      },
      "approve(address,uint256)": {
        "details": "See {IERC20-approve}. Requirements: - `spender` cannot be the zero address."
      },
      "balanceOf(address)": {
        "details": "See {IERC20-balanceOf}."
      },
      "burn(uint256)": {
        "details": "Destroys `amount` tokens from the caller. See {ERC20-_burn}."
      },
      "burnFrom(address,uint256)": {
        "details": "Destroys `amount` tokens from `account`, deducting from the caller's allowance. See {ERC20-_burn} and {ERC20-allowance}. Requirements: - the caller must have allowance for ``accounts``'s tokens of at least `amount`."
      },
      "checkpoints(address,uint32)": {
        "details": "Get the `pos`-th checkpoint for `account`."
      },
      "decimals()": {
        "details": "Returns the number of decimals used to get its user representation. For example, if `decimals` equals `2`, a balance of `505` tokens should be displayed to a user as `5,05` (`505 / 10 ** 2`). Tokens usually opt for a value of 18, imitating the relationship between Ether and Wei. This is the value {ERC20} uses, unless this function is overridden; NOTE: This information is only used for _display_ purposes: it in no way affects any of the arithmetic of the contract, including {IERC20-balanceOf} and {IERC20-transfer}."
      },
      "decreaseAllowance(address,uint256)": {
        "details": "Atomically decreases the allowance granted to `spender` by the caller. This is an alternative to {approve} that can be used as a mitigation for problems described in {IERC20-approve}. Emits an {Approval} event indicating the updated allowance. Requirements: - `spender` cannot be the zero address. - `spender` must have allowance for the caller of at least `subtractedValue`."
      },
      "delegate(address)": {
        "details": "Delegate votes from the sender to `delegatee`."
      },
      "delegateBySig(address,uint256,uint256,uint8,bytes32,bytes32)": {
        "details": "Delegates votes from signer to `delegatee`"
      },
      "delegates(address)": {
        "details": "Get the address `account` is currently delegating to."
      },
      "getCurrentVotes(address)": {
        "details": "Comp version of the {getVotes} accessor, with `uint96` return type."
      },
      "getPastTotalSupply(uint256)": {
        "details": "Retrieve the `totalSupply` at the end of `blockNumber`. Note, this value is the sum of all balances. It is but NOT the sum of all the delegated votes! Requirements: - `blockNumber` must have been already mined"
      },
      "getPastVotes(address,uint256)": {
        "details": "Retrieve the number of votes for `account` at the end of `blockNumber`. Requirements: - `blockNumber` must have been already mined"
      },
      "getPriorVotes(address,uint256)": {
        "details": "Comp version of the {getPastVotes} accessor, with `uint96` return type."
      },
      "getRoleAdmin(bytes32)": {
        "details": "Returns the admin role that controls `role`. See {grantRole} and {revokeRole}. To change a role's admin, use {_setRoleAdmin}."
      },
      "getRoleMember(bytes32,uint256)": {
        "details": "Returns one of the accounts that have `role`. `index` must be a value between 0 and {getRoleMemberCount}, non-inclusive. Role bearers are not sorted in any particular way, and their ordering may change at any point. WARNING: When using {getRoleMember} and {getRoleMemberCount}, make sure you perform all queries on the same block. See the following https://forum.openzeppelin.com/t/iterating-over-elements-on-enumerableset-in-openzeppelin-contracts/2296[forum post] for more information."
      },
      "getRoleMemberCount(bytes32)": {
        "details": "Returns the number of accounts that have `role`. Can be used together with {getRoleMember} to enumerate all bearers of a role."
      },
      "getVotes(address)": {
        "details": "Gets the current votes balance for `account`"
      },
      "grantRole(bytes32,address)": {
        "details": "Overload {grantRole} to track enumerable memberships"
      },
      "hasRole(bytes32,address)": {
        "details": "Returns `true` if `account` has been granted `role`."
      },
      "increaseAllowance(address,uint256)": {
        "details": "Atomically increases the allowance granted to `spender` by the caller. This is an alternative to {approve} that can be used as a mitigation for problems described in {IERC20-approve}. Emits an {Approval} event indicating the updated allowance. Requirements: - `spender` cannot be the zero address."
      },
      "name()": {
        "details": "Returns the name of the token."
      },
      "nonces(address)": {
        "details": "See {IERC20Permit-nonces}."
      },
      "numCheckpoints(address)": {
        "details": "Get number of checkpoints for `account`."
      },
      "permit(address,address,uint256,uint256,uint8,bytes32,bytes32)": {
        "details": "See {IERC20Permit-permit}."
      },
      "renounceRole(bytes32,address)": {
        "details": "Overload {renounceRole} to track enumerable memberships"
      },
      "revokeRole(bytes32,address)": {
        "details": "Overload {revokeRole} to track enumerable memberships"
      },
      "supportsInterface(bytes4)": {
        "details": "See {IERC165-supportsInterface}."
      },
      "symbol()": {
        "details": "Returns the symbol of the token, usually a shorter version of the name."
      },
      "totalSupply()": {
        "details": "See {IERC20-totalSupply}."
      },
      "transfer(address,uint256)": {
        "details": "See {IERC20-transfer}. Requirements: - `recipient` cannot be the zero address. - the caller must have a balance of at least `amount`."
      },
      "transferFrom(address,address,uint256)": {
        "details": "See {IERC20-transferFrom}. Emits an {Approval} event indicating the updated allowance. This is not required by the EIP. See the note at the beginning of {ERC20}. Requirements: - `sender` and `recipient` cannot be the zero address. - `sender` must have a balance of at least `amount`. - the caller must have allowance for ``sender``'s tokens of at least `amount`."
      }
    },
    "version": 1
  },
  "userdoc": {
    "kind": "user",
    "methods": {},
    "version": 1
  },
  "storageLayout": {
    "storage": [
      {
        "astId": 62,
        "contract": "contracts/KiwiToken.sol:KiwiToken",
        "label": "_roles",
        "offset": 0,
        "slot": "0",
        "type": "t_mapping(t_bytes32,t_struct(RoleData)57_storage)"
      },
      {
        "astId": 403,
        "contract": "contracts/KiwiToken.sol:KiwiToken",
        "label": "_roleMembers",
        "offset": 0,
        "slot": "1",
        "type": "t_mapping(t_bytes32,t_struct(AddressSet)3734_storage)"
      },
      {
        "astId": 665,
        "contract": "contracts/KiwiToken.sol:KiwiToken",
        "label": "_balances",
        "offset": 0,
        "slot": "2",
        "type": "t_mapping(t_address,t_uint256)"
      },
      {
        "astId": 671,
        "contract": "contracts/KiwiToken.sol:KiwiToken",
        "label": "_allowances",
        "offset": 0,
        "slot": "3",
        "type": "t_mapping(t_address,t_mapping(t_address,t_uint256))"
      },
      {
        "astId": 673,
        "contract": "contracts/KiwiToken.sol:KiwiToken",
        "label": "_totalSupply",
        "offset": 0,
        "slot": "4",
        "type": "t_uint256"
      },
      {
        "astId": 675,
        "contract": "contracts/KiwiToken.sol:KiwiToken",
        "label": "_name",
        "offset": 0,
        "slot": "5",
        "type": "t_string_storage"
      },
      {
        "astId": 677,
        "contract": "contracts/KiwiToken.sol:KiwiToken",
        "label": "_symbol",
        "offset": 0,
        "slot": "6",
        "type": "t_string_storage"
      },
      {
        "astId": 2122,
        "contract": "contracts/KiwiToken.sol:KiwiToken",
        "label": "_nonces",
        "offset": 0,
        "slot": "7",
        "type": "t_mapping(t_address,t_struct(Counter)2331_storage)"
      },
      {
        "astId": 1395,
        "contract": "contracts/KiwiToken.sol:KiwiToken",
        "label": "_delegates",
        "offset": 0,
        "slot": "8",
        "type": "t_mapping(t_address,t_address)"
      },
      {
        "astId": 1401,
        "contract": "contracts/KiwiToken.sol:KiwiToken",
        "label": "_checkpoints",
        "offset": 0,
        "slot": "9",
        "type": "t_mapping(t_address,t_array(t_struct(Checkpoint)1386_storage)dyn_storage)"
      },
      {
        "astId": 1405,
        "contract": "contracts/KiwiToken.sol:KiwiToken",
        "label": "_totalSupplyCheckpoints",
        "offset": 0,
        "slot": "10",
        "type": "t_array(t_struct(Checkpoint)1386_storage)dyn_storage"
      },
      {
        "astId": 3994,
        "contract": "contracts/KiwiToken.sol:KiwiToken",
        "label": "init",
        "offset": 0,
        "slot": "11",
        "type": "t_bool"
      }
    ],
    "types": {
      "t_address": {
        "encoding": "inplace",
        "label": "address",
        "numberOfBytes": "20"
      },
      "t_array(t_bytes32)dyn_storage": {
        "base": "t_bytes32",
        "encoding": "dynamic_array",
        "label": "bytes32[]",
        "numberOfBytes": "32"
      },
      "t_array(t_struct(Checkpoint)1386_storage)dyn_storage": {
        "base": "t_struct(Checkpoint)1386_storage",
        "encoding": "dynamic_array",
        "label": "struct ERC20Votes.Checkpoint[]",
        "numberOfBytes": "32"
      },
      "t_bool": {
        "encoding": "inplace",
        "label": "bool",
        "numberOfBytes": "1"
      },
      "t_bytes32": {
        "encoding": "inplace",
        "label": "bytes32",
        "numberOfBytes": "32"
      },
      "t_mapping(t_address,t_address)": {
        "encoding": "mapping",
        "key": "t_address",
        "label": "mapping(address => address)",
        "numberOfBytes": "32",
        "value": "t_address"
      },
      "t_mapping(t_address,t_array(t_struct(Checkpoint)1386_storage)dyn_storage)": {
        "encoding": "mapping",
        "key": "t_address",
        "label": "mapping(address => struct ERC20Votes.Checkpoint[])",
        "numberOfBytes": "32",
        "value": "t_array(t_struct(Checkpoint)1386_storage)dyn_storage"
      },
      "t_mapping(t_address,t_bool)": {
        "encoding": "mapping",
        "key": "t_address",
        "label": "mapping(address => bool)",
        "numberOfBytes": "32",
        "value": "t_bool"
      },
      "t_mapping(t_address,t_mapping(t_address,t_uint256))": {
        "encoding": "mapping",
        "key": "t_address",
        "label": "mapping(address => mapping(address => uint256))",
        "numberOfBytes": "32",
        "value": "t_mapping(t_address,t_uint256)"
      },
      "t_mapping(t_address,t_struct(Counter)2331_storage)": {
        "encoding": "mapping",
        "key": "t_address",
        "label": "mapping(address => struct Counters.Counter)",
        "numberOfBytes": "32",
        "value": "t_struct(Counter)2331_storage"
      },
      "t_mapping(t_address,t_uint256)": {
        "encoding": "mapping",
        "key": "t_address",
        "label": "mapping(address => uint256)",
        "numberOfBytes": "32",
        "value": "t_uint256"
      },
      "t_mapping(t_bytes32,t_struct(AddressSet)3734_storage)": {
        "encoding": "mapping",
        "key": "t_bytes32",
        "label": "mapping(bytes32 => struct EnumerableSet.AddressSet)",
        "numberOfBytes": "32",
        "value": "t_struct(AddressSet)3734_storage"
      },
      "t_mapping(t_bytes32,t_struct(RoleData)57_storage)": {
        "encoding": "mapping",
        "key": "t_bytes32",
        "label": "mapping(bytes32 => struct AccessControl.RoleData)",
        "numberOfBytes": "32",
        "value": "t_struct(RoleData)57_storage"
      },
      "t_mapping(t_bytes32,t_uint256)": {
        "encoding": "mapping",
        "key": "t_bytes32",
        "label": "mapping(bytes32 => uint256)",
        "numberOfBytes": "32",
        "value": "t_uint256"
      },
      "t_string_storage": {
        "encoding": "bytes",
        "label": "string",
        "numberOfBytes": "32"
      },
      "t_struct(AddressSet)3734_storage": {
        "encoding": "inplace",
        "label": "struct EnumerableSet.AddressSet",
        "members": [
          {
            "astId": 3733,
            "contract": "contracts/KiwiToken.sol:KiwiToken",
            "label": "_inner",
            "offset": 0,
            "slot": "0",
            "type": "t_struct(Set)3463_storage"
          }
        ],
        "numberOfBytes": "64"
      },
      "t_struct(Checkpoint)1386_storage": {
        "encoding": "inplace",
        "label": "struct ERC20Votes.Checkpoint",
        "members": [
          {
            "astId": 1383,
            "contract": "contracts/KiwiToken.sol:KiwiToken",
            "label": "fromBlock",
            "offset": 0,
            "slot": "0",
            "type": "t_uint32"
          },
          {
            "astId": 1385,
            "contract": "contracts/KiwiToken.sol:KiwiToken",
            "label": "votes",
            "offset": 4,
            "slot": "0",
            "type": "t_uint224"
          }
        ],
        "numberOfBytes": "32"
      },
      "t_struct(Counter)2331_storage": {
        "encoding": "inplace",
        "label": "struct Counters.Counter",
        "members": [
          {
            "astId": 2330,
            "contract": "contracts/KiwiToken.sol:KiwiToken",
            "label": "_value",
            "offset": 0,
            "slot": "0",
            "type": "t_uint256"
          }
        ],
        "numberOfBytes": "32"
      },
      "t_struct(RoleData)57_storage": {
        "encoding": "inplace",
        "label": "struct AccessControl.RoleData",
        "members": [
          {
            "astId": 54,
            "contract": "contracts/KiwiToken.sol:KiwiToken",
            "label": "members",
            "offset": 0,
            "slot": "0",
            "type": "t_mapping(t_address,t_bool)"
          },
          {
            "astId": 56,
            "contract": "contracts/KiwiToken.sol:KiwiToken",
            "label": "adminRole",
            "offset": 0,
            "slot": "1",
            "type": "t_bytes32"
          }
        ],
        "numberOfBytes": "64"
      },
      "t_struct(Set)3463_storage": {
        "encoding": "inplace",
        "label": "struct EnumerableSet.Set",
        "members": [
          {
            "astId": 3458,
            "contract": "contracts/KiwiToken.sol:KiwiToken",
            "label": "_values",
            "offset": 0,
            "slot": "0",
            "type": "t_array(t_bytes32)dyn_storage"
          },
          {
            "astId": 3462,
            "contract": "contracts/KiwiToken.sol:KiwiToken",
            "label": "_indexes",
            "offset": 0,
            "slot": "1",
            "type": "t_mapping(t_bytes32,t_uint256)"
          }
        ],
        "numberOfBytes": "64"
      },
      "t_uint224": {
        "encoding": "inplace",
        "label": "uint224",
        "numberOfBytes": "28"
      },
      "t_uint256": {
        "encoding": "inplace",
        "label": "uint256",
        "numberOfBytes": "32"
      },
      "t_uint32": {
        "encoding": "inplace",
        "label": "uint32",
        "numberOfBytes": "4"
      }
    }
  }
}